:1000000007EF29F00000000000EF00F00000000002
:0A0010000000000000000000F3D71C
:0E001C00026A016A006A086A036A000E120096
:10002A000B840BAE20EF00F0010E036E026A016A28
:0A003A00006A0A360232FF0E1200BF
:080044000AAE029E000E12003C
:10004C000B820BAE30EF00F00368026801680068A9
:08005C000A360232FF0E120009
:100064000CB074EF00F00CA21AEF01F00E6A000E4F
:1000740002648BEF00F0F00E0214D8A456EF00F0E7
:10008400023A01380F0B02260138F00B016E0038DA
:100094000F0B01260038F00B006E08380F0B0026FA
:1000A4000838F00B086E0E84D89002BE6FEF00F093
:1000B40008360036013602360E2A02BE6FEF00F013
:1000C40008360036013602360E2A02BE6FEF00F003
:1000D40008360036013602360E2A0E50036410EF3D
:1000E40001F0035E0BBC08AE15EF01F0D880800E62
:1000F40008640030000E002201220222D8A015EF6D
:1001040001F0023201320032034A1AEF01F015EF16
:1001140001F001C002F000C001F008C000F0086A5C
:10012400000E0E860264C2EF00F0F00E0214D8A492
:10013400AAEF00F0023A01380F0B02260138F00B47
:10014400016E00380F0B01260038F00B006E0E8490
:10015400D89002BE6FEF00F00036013602360E2A48
:1001640002BE6FEF00F00036013602360E2A02BEE0
:100174006FEF00F00036013602360E2A6FEF00F002
:1001840001C002F000C001F0006A000E0E960E8855
:100194000264EFEF00F0F00E0214D8A4DAEF00F0DE
:1001A400023A01380F0B02260138F00B016E0E845F
:1001B400D89002BE6FEF00F0013602360E2A02BE5E
:1001C4006FEF00F0013602360E2A02BE6FEF00F028
:1001D400013602360E2A6FEF00F001C002F0016A08
:1001E400000E0E8602641FEF01F0F00E0214D8A474
:1001F400FEEF00F0023A0E84D89002BE6FEF00F0DA
:1002040002360E2A02BE6FEF00F002360E2A02BE3C
:100214006FEF00F002360E2A6FEF00F0010E0C6E45
:1002240002DF22EF01F0020E0C6E0ADF22EF01F072
:10023400040E0C6E09DF22EF01F0080E0C6EECDEEA
:020244001200A6
:10024600025006180E6E086A096A0B6A03500764A4
:1002560016EF02F006500A6E068E028E03500B6EE3
:100266000750036E000E0B6466EF01F00B50075E3D
:10027600D8B407EF02F0070E0764D5EF01F0075E6A
:1002860000C008F001C000F002C001F0026A074E8B
:1002960007EF02F00764AAEF01F0075E00C008F05E
:1002A60001C000F0016A074E07EF02F0076488EF0D
:1002B60001F0075E00C008F0006A074E07EF02F083
:1002C60007646FEF01F00AC002F005C001F004C038
:1002D60000F0086A30EF03F0030E07647AEF01F0CE
:1002E600075E08380F0B086E074E07EF02F0D8902E
:1002F6000832074E07EF02F0D8900832074E07EF94
:1003060002F0D890083207EF02F0030E076499EF67
:1003160001F0075E08380F0B086E0038F00B082650
:1003260000380F0B006E074E07EF02F0D890003230
:100336000832074E07EF02F0D89000320832074E17
:1003460007EF02F0D8900032083207EF02F0030EF2
:100356000764C1EF01F0075E08380F0B086E00381E
:10036600F00B082600380F0B006E0138F00B002644
:1003760001380F0B016E074E07EF02F0D8900132DD
:1003860000320832074E07EF02F0D89001320032F1
:100396000832074E07EF02F0D890013200320832D9
:1003A60007EF02F0030E0764F2EF01F0075E08386C
:1003B6000F0B086E0038F00B082600380F0B006E86
:1003C6000138F00B002601380F0B016E0238F00BD6
:1003D600012602380F0B026E074E07EF02F0D89087
:1003E6000232013200320832074E07EF02F0D8908F
:1003F6000232013200320832074E07EF02F0D8907F
:100406000232013200320832096A000E0EAEFBEFEC
:1004160002F0081E001E011E021E082A00220122EA
:100426000222FBEF02F00750D8A41CEF02F030EFD7
:1004360003F0096A02C00AF0028E068E0750035CBA
:10044600076ED8B4EEEF02F0070E0764BCEF02F0B9
:10045600075E0450096E0550046E0650056E066A66
:10046600074EEEEF02F0070E076491EF02F0075E0B
:100476000450096E0550046E056A074EEEEF02F051
:10048600070E07646FEF02F0075E0450096E046AF8
:10049600074EEEEF02F0070E076456EF02F00AC0B1
:1004A60002F030EF03F0030E076461EF02F0075E1F
:1004B60009380F0B096E074EEEEF02F0D89009329D
:1004C600074EEEEF02F0D8900932074EEEEF02F03B
:1004D600D8900932EEEF02F0030E076480EF02F0C7
:1004E600075E09380F0B096E0438F00B092604382D
:1004F6000F0B046E074EEEEF02F0D890043209326D
:10050600074EEEEF02F0D89004320932074EEEEFB6
:1005160002F0D89004320932EEEF02F0030E0764BF
:10052600A8EF02F0075E09380F0B096E0438F00BCE
:10053600092604380F0B046E0538F00B042605381F
:100546000F0B056E074EEEEF02F0D890053204321F
:100556000932074EEEEF02F0D89005320432093226
:10056600074EEEEF02F0D890053204320932EEEF74
:1005760002F0030E0764D9EF02F0075E09380F0B8D
:10058600096E0438F00B092604380F0B046E053883
:10059600F00B042605380F0B056E0638F00B052602
:1005A60006380F0B066E074EEEEF02F0D8900632B5
:1005B600053204320932074EEEEF02F0D8900632C9
:1005C600053204320932074EEEEF02F0D8900632B9
:1005D600053204320932086A000E0EAEFBEF02F055
:1005E600091E041E051E061E092A042205220622CD
:1005F6000950082604500022055001220650022206
:100606000EBE12EF03F0D8A021EF03F00232013242
:1006160000320832033E21EF03F02BEF03F0D8B08F
:1006260026EF03F0000E081E001E011E021E082AF9
:100636000022012202220A7E26EF03F0010E0C6E32
:100646000EDD32EF03F0020E0C6E09DD32EF03F021
:10065600040E0C6EF8DC32EF03F0000E0C6E120086
:100666000134083609360450085E0550D8A0053C0A
:10067600095E003601360F0E0C6E01340836093657
:10068600045000A006D0085E0550D8A0053C095EBF
:1006960005D008260550D8B0053C09260036013697
:1006A6000C2EEBD700B006D0045008260550D8B063
:0806B600053C092600001200BA
:1006BE00086A080E0C6E003408360450085ED8B076
:0E06CE0002D00826D89000360C2EF5D7120068
:0A06DC00210E0D6E0D2EFED7120048
:1006E6000B800BAE7FEF03F0026A0AAEFF0E026EBE
:0C06F600016E006E0A360232FF0E120088
:080702000B6A0B86FF0E1200CA
:10070A000F0E0C6E470E0D6E0D2EFED70C2EFCD75B
:06071A00000000001200C7
:100720000D6A086A0050D8B4000C04180A6E0ABE9C
:100730000D1E0B6A04AE02D0041E042A00AE02D0C5
:10074000001E002A005004100A6E0ABE1FD004507A
:10075000085E003600340836045008260036060EBF
:100760000C6E00340836045000B0085E00A0082665
:1007700000360C2EF6D700A008260BB015D00DAE13
:10078000000C001E002A081E082A000C04AE09D026
:1007900000BE04D00050086E006AF1D7006A002A3B
:1007A000000C001E0B2AD3D7082A0450085CD8A4DA
:0E07B000E6D7086A002A00AEE2D7FF0C12005E
:1007BE00086A096A000E0762036464EF04F00250CF
:1007CE0006180A6E075003267E0ED8A0F5EF03F02A
:1007DE00035ED8B069EF04F0F9EF03F0035ED8A022
:1007EE006EEF04F0028E068E02C00EF001C00BF00A
:1007FE0000C00DF000500402F4CF0CF001500502C1
:10080E00F4CF00F0F3CF08F00402F3500C26F450AE
:10081E000822000E00220D500502F3500C26F45053
:10082E000822000E002202500402F3500826F45053
:10083E00002202500502016A000E0122F35000262A
:10084E00F45001220D500602F3500826F4500022F7
:10085E00026A000E012202220B500602F3500026FD
:10086E00F4500122000E02220E500602F350012611
:10087E00F450022202BE4CEF04F008360036013668
:10088E0002360306D8B46EEF04F05FEF04F0D880A2
:10089E00800E08640030000E002201220222D8A031
:1008AE005FEF04F0023201320032034A69EF04F0C6
:1008BE000AAE029E000E71EF04F0010E0EEC00F077
:1008CE0071EF04F0020E26EC00F071EF04F0040E4E
:0608DE0015EC00F0120011
:0608E400000000001200FC
:1008EA000450000A12E10550000A0FE10650000AFE
:1008FA000CE10750000A09E1FF0E006EFF0E016EBF
:10090A007F0E026EFF0E036EA7D0086A096A0750AF
:10091A00D8B420EF05F00350D8B424EF05F0025004
:10092A0006180A6E028E068E0E6A02C008F001C010
:10093A000CF000C00DF004500D5E0550D8A0053C27
:10094A000C5E0650D8A0063C085E086A0C6A0D6A5E
:10095A00D8A0B7EF04F0D890023201320032083240
:10096A00010E0E6E0750035ED8A0C4EF04F07E0E8F
:10097A000E240326D8B029EF05F0CAEF04F07E0E44
:10098A000E240326D8A02EEF05F0180E0B6E0D3696
:10099A000C3608360036013602360E360450005E32
:1009AA000550D8A0053C015E0650D8A0063C025E60
:1009BA0006340E120EA0E5EF04F00D80F0EF04F0FD
:1009CA00045000260550D8B0053C01260650D8B080
:1009DA00062802260D900B2ECCEF04F016EF05F038
:1009EA00D8900036013602360E360450005E0550A5
:1009FA00D8A0053C015E0650D8A0063C025E06342B
:100A0A000E10010B0D26D8B00C2AD8B4082AD8A487
:100A1A0016EF05F008320C320D32032AD8B429EF4A
:100A2A0005F00AAE089E0850026E0C50016E0D5079
:100A3A00006E31EF05F0010E5FDE31EF05F0020EB8
:100A4A000EEC00F031EF05F0040E26EC00F031EF69
:0A0A5A0005F0080E15EC00F0120084
:100A6400B1C0C9FFC7B002D00000FCD7C9CF00F0A5
:020A740012006E
:100A76000B6A0A6A096A00500402F4CF09F0F3CF40
:100A860008F001500502F4CF0BF0F3CF0AF0005046
:100A96000502F3500926F4500A22E86A0B22015097
:100AA6000402F3500926F4500A22E86A0B2208C011
:100AB60000F009C001F00AC002F00BC003F01200FA
:100AC6000001B151390806E3300EB15D03E3010EB2
:080AD600006E01D0006A12005D
:100ADE00B1C06FFF6DB002D00000FCD76FCF00F039
:020AEE001200F4
:100AF0000A6A0350D8A40A800750D8A40A820A5070
:100B0000D8B4DBEF05F0030AD8B494EF05F00AB0CF
:100B10008FEF05F006AED9EF05F0D7EF05F002AE86
:100B2000D7EF05F0D9EF05F00250800B0A6E029E58
:100B30000650800B069E0A18D8B4A5EF05F00A509F
:100B4000D8B4D7EF05F0D9EF05F00750035CD8B45F
:100B5000AFEF05F0D8A0CBEF05F0D1EF05F00650D0
:100B6000025CD8B4B9EF05F0D8A0CBEF05F0D1EF17
:100B700005F00550015CD8B4C3EF05F0D8A0CBEF69
:100B800005F0D1EF05F00450005CD8B4DBEF05F0C0
:100B9000D8B0D1EF05F00A52D8B4D9EF05F0D7EFAD
:100BA00005F00A52D8B4D7EF05F0D9EF05F0D88098
:0E0BB0001200D8901200D880D88412001200D3
:100BBE00800E0001B119006E800E000A005CD8B0E4
:100BCE0064D1B1510008016E01C0B1F0800E011860
:100BDE00006E800E6E0A005CD8A0BAD0640E046E51
:100BEE00B1C000F096DD120E0024056E000E00BEA0
:100BFE00FF0E066E000E062205C000F006C001F0C4
:100C0E00000E06BEFF0E026E036E00360090013619
:100C1E000236033600360090013602360336940E45
:100C2E000024F66E530E0120F76E000E0220F86EB1
:100C3E000900F5CFB2F00900F5CFB3F00900F5CFFA
:100C4E00B4F00900F5CFB5F0640E046EB1C000F03B
:100C5E0060DD08C000F00A0E046E5BDD090E002494
:100C6E00056E000E00BEFF0E066E000E062205C0BB
:100C7E0000F006C001F0000E06BEFF0E026E036EFF
:100C8E0000360090013602360336003600900136EB
:100C9E0002360336940E0024F66E530E0120F76EC4
:100CAE00000E0220F86E0900F5CF00F00900F5CF16
:100CBE0001F00900F5CF02F00900F5CF03F0B2C044
:100CCE0004F0B3C005F0B4C006F0B5C007F070DD97
:100CDE0000C0B2F001C0B3F002C0B4F003C0B5F072
:100CEE000A0E046EB1C000F014DD08C000F000C0A2
:100CFE0001F0000E00BEFF0E026E036E046E013692
:100D0E000190023603360436013601900236033660
:100D1E000436940E0124F66E530E0220F76E000E6A
:100D2E000320F86E0900F5CF00F00900F5CF01F0B1
:100D3E000900F5CF02F00900F5CF03F0B2C004F0C0
:100D4E00B3C005F0B4C006F0B5C007F031DD01D276
:100D5E00800E0A0A006E800EB119005C6EE20A0E59
:100D6E00046EB1C000F0D5DC090E0024056E000E35
:100D7E0000BEFF0E066E000E062205C000F006C075
:100D8E0001F0000E06BEFF0E026E036E00360090DE
:100D9E00013602360336003600900136023603362F
:100DAE00940E0024F66E530E0120F76E000E0220F4
:100DBE00F86E0900F5CFB2F00900F5CFB3F00900D7
:100DCE00F5CFB4F00900F5CFB5F00A0E046EB1C040
:100DDE0000F09FDC08C000F000C001F0000E00BE65
:100DEE00FF0E026E036E046E01360190023603365C
:100DFE00043601360190023603360436940E012471
:100E0E00F66E530E0220F76E000E0320F86E0900E8
:100E1E00F5CF00F00900F5CF01F00900F5CF02F093
:100E2E000900F5CF03F0B2C004F0B3C005F0B4C0B2
:100E3E0006F0B5C007F0BCDC8CD1B1C000F0000EDE
:100E4E00B1BFFF0E016E026E036E003600900136CA
:100E5E000236033600360090013602360336940E03
:100E6E000024F66E530E0120F76E000E0220F86E6F
:100E7E000900F5CF00F00900F5CF01F00900F5CF1C
:100E8E0002F00900F5CF03F064D1800EB119006EA7
:100E9E00800E6E0A005CD8A0BDD0640E046EB1C088
:100EAE0000F037DC120E0024056E000E00BEFF0EA1
:100EBE00066E000E062205C000F006C001F0000E00
:100ECE0006BEFF0E026E036E00360090013602362D
:100EDE00033600360090013602360336C80E002463
:100EEE00F66E530E0120F76E000E0220F86E09000A
:100EFE00F5CFB2F00900F5CFB3F00900F5CFB4F09D
:100F0E000900F5CFB5F0640E046EB1C000F001DC3F
:100F1E0008C000F00A0E046E90EC03F0090E0024D7
:100F2E00056E000E00BEFF0E066E000E062205C0F8
:100F3E0000F006C001F0000E06BEFF0E026E036E3C
:100F4E000036009001360236033600360090013628
:100F5E0002360336C80E0024F66E530E0120F76ECD
:100F6E00000E0220F86E0900F5CF00F00900F5CF53
:100F7E0001F00900F5CF02F00900F5CF03F0B2C081
:100F8E0004F0B3C005F0B4C006F0B5C007F010DC35
:100F9E0000C0B2F001C0B3F002C0B4F003C0B5F0AF
:100FAE000A0E046EB1C000F090EC03F008C000F021
:100FBE0000C001F0000E00BEFF0E026E036E046E46
:100FCE0001360190023603360436013601900236A0
:100FDE0003360436C80E0124F66E530E0220F76E49
:100FEE00000E0320F86E0900F5CF00F00900F5CFD2
:100FFE0001F00900F5CF02F00900F5CF03F0B2C001
:10100E0004F0B3C005F0B4C006F0B5C007F0DFECD5
:10101E0003F09FD0800E0A0A006E800EB119005C9C
:10102E0071E20A0E046EB1C000F090EC03F0090EEE
:10103E000024056E000E00BEFF0E066E000E062288
:10104E0005C000F006C001F0000E06BEFF0E026ED7
:10105E00036E0036009001360236033600360090DD
:10106E00013602360336C80E0024F66E530E0120EA
:10107E00F76E000E0220F86E0900F5CFB2F00900EF
:10108E00F5CFB3F00900F5CFB4F00900F5CFB5F008
:10109E000A0E046EB1C000F090EC03F008C000F030
:1010AE0000C001F0000E00BEFF0E026E036E046E55
:1010BE0001360190023603360436013601900236AF
:1010CE0003360436C80E0124F66E530E0220F76E58
:1010DE00000E0320F86E0900F5CF00F00900F5CFE1
:1010EE0001F00900F5CF02F00900F5CF03F0B2C010
:1010FE0004F0B3C005F0B4C006F0B5C007F0DFECE5
:10110E0003F027D0B1C000F0000EB1BFFF0E016E8C
:10111E00026E036E0036009001360236033600363C
:10112E000090013602360336C80E0024F66E530EBA
:10113E000120F76E000E0220F86E0900F5CF00F0C8
:10114E000900F5CF01F00900F5CF02F00900F5CF47
:04115E0003F0120088
:101162000B6A0C6A0A6A086A0350D8B439EF09F0AC
:10117200028E9E0E035E03BEC4EF08F0D8B4C4EF25
:1011820008F029EF09F0036C080E035CD8A0F6EF13
:1011920008F0036E083600C008F001C000F002C07B
:1011A20001F0026A080E035CD8A0F6EF08F0036EA5
:1011B200083600C008F001C000F0016A080E035CA6
:1011C200D8A0F6EF08F0036E083600C008F0006AF7
:1011D200080E035CD8A0F6EF08F0036E0836086A22
:1011E2000350D8A4D89002EF09F00350D8B402EF0C
:1011F20009F0D8900232013200320832032EFAEF9F
:1012020008F00BBC08A013EF09F0D8A013EF09F007
:10121200082AD8B4002AD8B4012AD8B4022A02BEB5
:101222003DEF09F00AAE39EF09F0021E011E001E61
:10123200081E082AD8B4002AD8B4012AD8B4022A2F
:1012420039EF09F0026A016A006A086A39EF09F0A7
:101252000B800BAE43EF09F0026A0AAE43EF09F0CE
:10126200026E016E006E086E0A36023243EF09F01A
:10127200000E0C6A44EF09F0010E0C6E73EC03F0E1
:1012820044EF09F0FF0E0250036E0150026E00504F
:08129200016E0850006E12000D
:10129A0003500718D8A461EF09F002500618D8A421
:1012AA0061EF09F001500518D8A461EF09F0005068
:0E12BA000418D8B4D8841200D8941200120080
:1012C8000001B1BF02D0819601D08186B1BD02D0A4
:1012D800819401D08184B1BB02D0819201D08182F6
:1012E800B1B902D0819001D081804CB002D0818800
:1012F80001D08198818A72EC04F0819AB1B702D04A
:10130800819601D08186B1B502D0819401D08184C3
:10131800B1B302D0819201D08182B1B102D0819063
:1013280001D081804CB002D0818801D08198818A17
:1013380072EC04F0819A4CA003D085EC03F002D043
:061348006EEC03F0120040
:10134E000B6A0C6A086A0350D8B42BEF0AF002C07D
:10135E000AF0028E9E0E035E03AE1BEF0AF0036CC4
:10136E00080E035CD8A0E8EF09F0036E083600C043
:10137E0008F001C000F002C001F0026A080E035C22
:10138E00D8A0E8EF09F0036E083600C008F001C0DF
:10139E0000F0016A080E035CD8A0E8EF09F0036EB6
:1013AE00083600C008F0006A080E035CD8A0E8EF0B
:1013BE0009F0036E0836086A0350D8A4D890F4EFEB
:1013CE0009F00350D8B4F4EF09F0D890023201328C
:1013DE0000320832032EECEF09F00BBC08A005EF2B
:1013EE000AF0D8A005EF0AF0082AD8B4002AD8B41B
:1013FE00012AD8B4022A02BE2FEF0AF00AAE2BEF52
:10140E000AF0021E011E001E081E082AD8B4002A69
:10141E00D8B4012AD8B4022A2BEF0AF0026A016A64
:10142E00006A086A2BEF0AF00B800BAE36EF0AF05B
:10143E00026A0AAE36EF0AF0026E016E006E086E98
:10144E000A36023236EF0AF00C6A000E37EF0AF057
:10145E00010E0C6E000E73EC03F037EF0AF0FF0E68
:10146E000250036E0150026E0050016E0850006E65
:02147E0012005A
:101480006E0E0001B15DD8A0CAD0640E046EB1C06A
:1014900000F05FEC03F0120E0024056E066A000EE9
:1014A000062205C000F006C001F0000E06BEFF0EC9
:1014B000026E036E003600900136023603360036A7
:1014C0000090013602360336940E0024F66E530E59
:1014D0000120F76E000E0220F86E0900F5CF00F033
:1014E0000900F5CF01F00900F5CF02F00900F5CFB2
:1014F00003F0000E046E000E056E000E066E7E0EEA
:10150000076EDFEC03F000C0B2F001C0B3F002C020
:10151000B4F003C0B5F0640E046EB1C000F05FEC2F
:1015200003F008C000F00A0E046E5FEC03F0090E31
:101530000024056E066A000E062205C000F006C0F3
:1015400001F0000E06BEFF0E026E036E0036009024
:101550000136023603360036009001360236033675
:10156000940E0024F66E530E0120F76E000E02203A
:10157000F86E0900F5CF00F00900F5CF01F0090081
:10158000F5CF02F00900F5CF03F0B2C004F0B3C00C
:1015900005F0B4C006F0B5C007F0DFEC03F000C002
:1015A000B2F001C0B3F002C0B4F003C0B5F00A0E4F
:1015B000046EB1C000F05FEC03F008C000F000C0A2
:1015C00001F0000E026E036E046E013601900236C9
:1015D0000336043601360190023603360436940E83
:1015E0000124F66E530E0220F76E000E0320F86EF3
:1015F0000900F5CF00F00900F5CF01F00900F5CFA3
:1016000002F00900F5CF03F0B2C004F0B3C005F05A
:10161000B4C006F0B5C007F0DFEC03F0B1D0B151B3
:101620000A08D8B07ED00A0E046EB1C000F05FEC9C
:1016300003F0090E0024056E066A000E062205C09E
:1016400000F006C001F0000E06BEFF0E026E036E33
:10165000003600900136023603360036009001361F
:1016600002360336940E0024F66E530E0120F76EF8
:10167000000E0220F86E0900F5CF00F00900F5CF4A
:1016800001F00900F5CF02F00900F5CF03F0000EDC
:10169000046E000E056E000E066E7E0E076EDFEC09
:1016A00003F000C0B2F001C0B3F002C0B4F003C058
:1016B000B5F00A0E046EB1C000F05FEC03F008C094
:1016C00000F000C001F0000E026E036E046E0136E1
:1016D0000190023603360436013601900236033695
:1016E0000436940E0124F66E530E0220F76E000E9F
:1016F0000320F86E0900F5CF00F00900F5CF01F0E6
:101700000900F5CF02F00900F5CF03F0B2C004F0F4
:10171000B3C005F0B4C006F0B5C007F0DFEC03F0CD
:101720002FD0B1C000F0000E016E026E036E0036C5
:10173000009001360236033600360090013602363C
:101740000336940E0024F66E530E0120F76E000E41
:101750000220F86E0900F5CF00F00900F5CF01F086
:101760000900F5CF02F00900F5CF03F0000E046E7A
:10177000000E056E000E066E7E0E076EDFEC03F0A7
:02178000120055
:101782000B6A0A6A096A086A0E6A03340836045048
:10179200085E0550D8A0053C095E0650D8A0063C5C
:1017A2000A5E0750D8A0073C0B5EE86AD8A0010E7B
:1017B2000E5E0336070E0C6E0334083609360A36FF
:1017C2000B360E36045003A012D0085E0550D8A086
:1017D200053C095E0650D8A0063C0A5E0750D8A018
:1017E200073C0B5EE86AD8A0010E0E5E11D00826F7
:1017F2000550D8B0053C09260650D8B0063C0A264A
:101802000750D8B0073C0B26E86AD8B0010E0E2666
:1018120003360C2ED1D70234083609360A360B3677
:101822000E36045003A012D0085E0550D8A0053C25
:10183200095E0650D8A0063C0A5E0750D8A0073CB5
:101842000B5EE86AD8A0010E0E5E11D00826055084
:10185200D8B0053C09260650D8B0063C0A260750E7
:10186200D8B0073C0B26E86AD8B0010E0E26023625
:10187200070E0C6E0234083609360A360B360E365F
:10188200045002A012D0085E0550D8A0053C095EA3
:101892000650D8A0063C0A5E0750D8A0073C0B5E53
:1018A200E86AD8A0010E0E5E11D008260550D8B005
:1018B200053C09260650D8B0063C0A260750D8B087
:1018C200073C0B26E86AD8B0010E0E2602360C2E13
:1018D200D1D70134083609360A360B360E36045093
:1018E20002A012D0085E0550D8A0053C095E065041
:1018F200D8A0063C0A5E0750D8A0073C0B5EE86AF7
:10190200D8A0010E0E5E11D008260550D8B0053CB5
:1019120009260650D8B0063C0A260750D8B0073C24
:101922000B26E86AD8B0010E0E260136070E0C6EA1
:101932000134083609360A360B360E36045001A039
:1019420012D0085E0550D8A0053C095E0650D8A00A
:10195200063C0A5E0750D8A0073C0B5EE86AD8A096
:10196200010E0E5E11D008260550D8B0053C09269E
:101972000650D8B0063C0A260750D8B0073C0B26C2
:10198200E86AD8B0010E0E2601360C2ED1D70034EB
:10199200083609360A360B360E36045001A012D02C
:1019A200085E0550D8A0053C095E0650D8A0063C4A
:1019B2000A5E0750D8A0073C0B5EE86AD8A0010E69
:1019C2000E5E11D008260550D8B0053C09260650F7
:1019D200D8B0063C0A260750D8B0073C0B26E86A66
:1019E200D8B0010E0E260036070E0C6E00340836F3
:1019F20009360A360B360E36045000A012D0085EA5
:101A02000550D8A0053C095E0650D8A0063C0A5EE7
:101A12000750D8A0073C0B5EE86AD8A0010E0E5E04
:101A220011D008260550D8B0053C09260650D8B07A
:101A3200063C0A260750D8B0073C0B26E86AD8B005
:101A4200010E0E2600360C2ED1D700B00ED0045057
:101A520008260550D8B0053C09260650D8B0063CE9
:0C1A62000A260750D8B0073C0B261200E3
:081A6E00067E23EC01F01200DA
:101A76000050086E0150006E0250016E0350026E57
:101A8600036A0B6A0C6A9E0E036E0A6A020E0C6EDD
:061A960032EC00F012002A
:101A9C000450000A08E10550000A05E1FF0E006E33
:101AAC007F0E016E58D00D6A096A086A0150001049
:101ABC00D8B4000C015005180A6E0ABE0D1E0B6A34
:101ACC0005AE05D0041E051E042AD8B4052A01AEA5
:101ADC0005D0001E011E002AD8B4012A01500510A1
:101AEC000A6E0ABE10D033EC03F00BB020D00DAE52
:101AFC00000C001E011E002AD8B4012A081E091E63
:101B0C00082AD8B4092A000C05AE0DD001BE07D0A6
:101B1C000150096E0050086E016A006AE8D7016A2C
:101B2C00006A002A000C011E001E0B2ADDD7082AB1
:101B3C00D8B4092A0450085CD8A4D9D70550095C3C
:101B4C00D8A4D5D7096A086A002AD8B4012A01AEEC
:081B5C00CED70000FF0C1200BF
:101B6400F250026EF29E0500FF6A0150FE6E0050B4
:081B7400FD6E02BEF28E1200AC
:101B7C000001A96BAA6B9D6B9E6B8BC000F08CC097
:101B8C0001F08DC002F0010E8B27000E8C238D23EB
:101B9C0000C0F6FF01C0F7FF02C0F8FF0900F5CF47
:101BAC0000F000C09AF00052D8B4CBEF1DF09A515F
:101BBC00250A0BE089C0E1FF8AC0E2FF9AC0E6FF6C
:101BCC00894B8A2BA94BAA2BD8D79B6B9C6B9D6BF3
:101BDC009E6B23D09D87010E8B27000E8C238D23AB
:101BEC0059D09D81010E8B27000E8C238D2352D052
:101BFC009D83010E8B27000E8C238D234BD09E874B
:101C0C00010E8B27000E8C238D2344D09D85010E55
:101C1C008B27000E8C238D233DD08BC0F6FF8CC000
:101C2C00F7FF8DC0F8FF0900F5CF01F001502D0A28
:101C3C00D1E08BC0F6FF8CC0F7FF8DC0F8FF090018
:101C4C00F5CF01F00150200ACCE08BC0F6FF8CC020
:101C5C00F7FF8DC0F8FF0900F5CF01F001502B0AFA
:101C6C00C7E08BC0F6FF8CC0F7FF8DC0F8FF0900F2
:101C7C00F5CF01F00150230AC2E08BC0F6FF8CC0F7
:101C8C00F7FF8DC0F8FF0900F5CF01F00150300AC5
:101C9C00BDE001D09ED79DA301D09D919DA701D001
:101CAC009D958BC0F6FF8CC0F7FF8DC0F8FF090027
:101CBC00F5CF00F0000E016E00C0B1F063EC05F042
:101CCC00005236E09B6B9C6B9BC000F09CC001F0FB
:101CDC000A0E046E000E056E3BEC05F08BC0F6FF91
:101CEC008CC0F7FF8DC0F8FF0900F5CF02F0025051
:101CFC0000249B6F000E01209C6F300E9B5F000E2A
:101D0C009C5B010E8B27000E8C238D238BC0F6FF62
:101D1C008CC0F7FF8DC0F8FF0900F5CF00F0000E66
:101D2C00016E00C0B1F063EC05F00052CDE133D090
:101D3C008BC0F6FF8CC0F7FF8DC0F8FF0900F5CF04
:101D4C0001F001502A0A27E18EC0E9FF8FC0EAFF9B
:101D5C00EECF00F0EECF01F000C0E9FF01C0EAFFCA
:101D6C00EECF9BF0EECF9CF08EC0E9FF8FC0EAFF68
:101D7C00020EEE24006E000EEE20016E8EC0E1FF0E
:101D8C008FC0E2FF00C0E6FF01C0E6FF010E8B270B
:101D9C00000E8C238D238BC0F6FF8CC0F7FF8DC0FB
:101DAC00F8FF0900F5CF01F001502E0A70E1010E89
:101DBC008B27000E8C238D238BC0F6FF8CC0F7FF76
:101DCC008DC0F8FF0900F5CF01F001502A0A28E177
:101DDC008EC0E9FF8FC0EAFFEECF00F0EECF01F02E
:101DEC0000C0E9FF01C0EAFFEECF98F0EECF99F00A
:101DFC008EC0E9FF8FC0EAFF020EEE24006E000ECB
:101E0C00EE20016E8EC0E1FF8FC0E2FF00C0E6FF46
:101E1C0001C0E6FF010E8B27000E8C238D2336D0DC
:101E2C00986B996B8BC0F6FF8CC0F7FF8DC0F8FFD9
:101E3C000900F5CF00F0000E016E00C0B1F063ECAC
:101E4C0005F0005223E098C000F099C001F00A0E92
:101E5C00046E000E056E3BEC05F08BC0F6FF8CC0DB
:101E6C00F7FF8DC0F8FF0900F5CF02F002500024F7
:101E7C00986F000E0120996F300E985F000E995BE1
:101E8C00010E8B27000E8C238D23CCD703D0986B9F
:101E9C00996B9E898BC000F08CC001F08DC002F054
:101EAC00010E8B27000E8C238D2300C0F6FF01C082
:101EBC00F7FF02C0F8FF0900F5CF9AF0F9D0A9C0DE
:101ECC0000F0AAC001F0CFEF1DF09D89E3D79E85ED
:101EDC002ED19D8B9E812BD19E8329D19D8D27D177
:101EEC0026D19D8B9D8F23D18EC0E9FF8FC0EAFF39
:101EFC00EECF00F0EECF01F000C0E9FF01C0EAFF29
:101F0C00EECFA5F0EECFA6F08EC0E9FF8FC0EAFFB2
:101F1C00020EEE24006E000EEE20016E8EC0E1FF6C
:101F2C008FC0E2FF00C0E6FF01C0E6FF000EA6195D
:101F3C0002E1000EA51904E1200EA56F000EA66F9C
:101F4C00A76BA86BA751A525E96EA851A621EA6E2F
:101F5C00EE520BE0010EA725006E000EA821016EBB
:101F6C0000C0A7F001C0A8F0EDD7985199110AE074
:101F7C00A851995D02E1A751985D04E298C0A7F0C1
:101F8C0099C0A8F09C51A85D02E19B51A75D05E2A8
:101F9C00A7519B5FA8519C5B02D09B6B9C6B9DB720
:101FAC0016D09BC000F09CC001F0010E9B5F000E90
:101FBC009C5B005001100BE089C0E1FF8AC0E2FF7E
:101FCC00200EE66E894B8A2BA94BAA2BEAD7A7C009
:101FDC0002F0A8C003F0010EA75D006E000EA85918
:101FEC00016E00C0A7F001C0A8F00250031019E068
:101FFC00A5C0E9FFA6C0EAFF89C0E1FF8AC0E2FFE5
:10200C00EECFE6FF894B8A2B010EA525006E000E44
:10201C00A621016E00C0A5F001C0A6F0A94BAA2B09
:10202C00D6D79DA716D09BC000F09CC001F0010E26
:10203C009B5F000E9C5B005001100BE089C0E1FF20
:10204C008AC0E2FF200EE66E894B8A2BA94BAA2B85
:10205C00EAD793D58EC0E9FF8FC0EAFFEECF00F030
:10206C00EECF01F000C0E9FF01C0EAFFEECF9AF01D
:10207C008EC0E9FF8FC0EAFF020EEE24006E000E48
:10208C00EE20016E8EC0E1FF8FC0E2FF00C0E6FFC4
:10209C0001C0E6FF9A0EA56F000EA66F010EA76F8A
:1020AC00000EA86F62D7C00E9D13000E9E133FD07A
:1020BC009A51000AD8B403D79A516C0AD8B405D7F0
:1020CC009A514C0AD8B401D79A51660AD8B4FFD6A3
:1020DC009A51450AD8B4FDD69A51650AD8B4FAD6A5
:1020EC009A51670AD8B4F8D69A516F0AD8B4F6D672
:1020FC009A51640AD8B4F4D69A51690AD8B4F0D675
:10210C009A51700AD8B4EDD69A51580AD8B4E9D677
:10211C009A51780AD8B4E6D69A51730AD8B4E4D650
:10212C009A51630A97E09A51750ABDE0B3D7000E35
:10213C009D15006E9E51070B016E00500110D8B416
:10214C0072EF19F09EA904D0060E986F000E996FCD
:10215C008EC0E9FF8FC0EAFFEECF00F0EECF01F0AA
:10216C0000C0E9FF01C0EAFFEECF9FF0EECFA0F078
:10217C00EECFA1F0EECFA2F08EC0E9FF8FC0EAFF48
:10218C00040EEE24006E000EEE20016E8EC0E1FFF8
:10219C008FC0E2FF00C0E6FF01C0E6FF046A056ADB
:1021AC00066A076A9FC000F0A0C001F0A1C002F04F
:1021BC00A2C003F078EC05F0010ED8B0000E006E52
:1021CC00005205E0A17F030E9D13000E9E13A36B1E
:1021DC00A46B9FC000F0A0C001F0A1C002F0A2C08F
:1021EC0003F0046A056A066A076A4DEC09F0000EF2
:1021FC00D8A4010E006E0052D8B489D0A2C000F051
:10220C00016A026A036AFF0E0016000E01167E0EAA
:10221C00005E000E015A00C0A3F001C0A4F0010E34
:10222C00005E000E015A00C0A3F001C0A4F0030E22
:10223C00046E000E056E3BEC05F000C0A3F001C06F
:10224C00A4F00A0E046E000E056E22DC00C0A3F092
:10225C0001C0A4F0800E0118026E800E025C02E137
:10226C00000E005C05E2010E0001A35F000EA45BF2
:10227C000001A3510008B16FDFEC05F09FC004F022
:10228C00A0C005F0A1C006F0A2C007F0DFEC03F07F
:10229C0000C0A5F001C0A6F002C0A7F003C0A8F0D2
:1022AC00000E046E000E056E000E066E7F0E076E9D
:1022BC00A5C000F0A6C001F0A7C002F0A8C003F0B2
:1022CC0078EC05F0010ED8B0000E006E005205E05F
:1022DC00010EA35F000EA45B1AD0000E046E000E5C
:1022EC00056E200E066E820E076EA5C000F0A6C00D
:1022FC0001F0A7C002F0A8C003F078EC05F0000EC6
:10230C00D8B0010E006E005202E0A34BA42B800E3D
:10231C00006E800EA419005C02E1A351000803E3D7
:10232C00010E9A6F02D0A3C09AF09EB118D09EA352
:10233C0015D0800EA419006E7F0E005C02E1FC0E1D
:10234C00A35D0BE3800EA419006E800E9919005C3E
:10235C0002E19851A35D01E201D001D0EFD3985175
:10236C00991106E09EA304D0010E985F000E995BB4
:10237C009951000802E19851080803E2080E9A6F7F
:10238C0002D098C09AF09FC000F0A0C001F0A1C08C
:10239C0002F0A2C003F0046A056A066A076A4DECF3
:1023AC0009F0000ED8A4010E006E0052D8B44BD127
:1023BC00A3C0B1F0DFEC05F000C004F001C005F0E3
:1023CC0002C006F003C007F09FC000F0A0C001F0EF
:1023DC00A1C002F0A2C003F075EC04F000C09FF0A5
:1023EC0001C0A0F002C0A1F003C0A2F000019A51FC
:1023FC000008B16FDFEC05F000C004F001C005F07F
:10240C0002C006F003C007F09FC000F0A0C001F0AE
:10241C00A1C002F0A2C003F075EC04F000C0ABF058
:10242C0001C0ACF002C0ADF003C0AEF0ABC09FF089
:10243C00ACC0A0F0ADC0A1F0AEC0A2F0ABC000F03B
:10244C00ACC001F0ADC002F0AEC003F0B1EC08F0CE
:10245C003BEC0DF000C004F001C005F002C006F02A
:10246C0003C007F0ABC000F0ACC001F0ADC002F08F
:10247C00AEC003F037EC0DF0000E046E000E056ECE
:10248C00000E066E7E0E076E78EC05F0000ED8B0CE
:10249C00010E006E00521AE09FC000F0A0C001F0C7
:1024AC00A1C002F0A2C003F0000E046E000E056E77
:1024BC00000E066E7E0E076E23EC01F000C09FF03E
:1024CC0001C0A0F002C0A1F003C0A2F09FC000F0B8
:1024DC00A0C001F0A1C002F0A2C003F0B1EC08F062
:1024EC0000019A51010F096E0A6A000E0A2209C0F6
:1024FC0004F00AC005F0000E0ABEFF0E066E076E51
:10250C000436049005360636073604360490053634
:10251C00063607362C0E0424F66E540E0520F76E84
:10252C00000E0620F86E0900F5CF05F00900F5CF76
:10253C0006F00900F5CF07F00900F5CF08F00850B8
:10254C00035C08E10750025C05E10650015C02E106
:10255C000550005C1EE300019FC000F0A0C001F01C
:10256C00A1C002F0A2C003F0CD0E046ECC0E056E1D
:10257C004C0E066E7B0E076EDFEC03F000C09FF076
:10258C0001C0A0F002C0A1F003C0A2F0A34BA42B89
:10259C005AD09FC000F0A0C001F0A1C002F0A2C0B0
:1025AC0003F0B1EC08F09AC004F0000E056E066E54
:1025BC00076E04360490053606360736043604904A
:1025CC000536063607362C0E0424F66E540E0520FE
:1025DC00F76E000E0620F86E0900F5CF05F0090025
:1025EC00F5CF06F00900F5CF07F00900F5CF08F09C
:1025FC000850035C08E10750025C05E10650015CE1
:10260C0002E10550005C1FE200019FC000F0A0C079
:10261C0001F0A1C002F0A2C003F0000E046E000E87
:10262C00056E200E066E820E076EDFEC03F000C006
:10263C009FF001C0A0F002C0A1F003C0A2F0010EF7
:10264C00A35F000EA45B00019EA393D09EB791D014
:10265C00800E000A006E800E9919005C02E1985100
:10266C000A0804E20A0E986F000E996F9FC000F0E2
:10267C00A0C001F0A1C002F0A2C003F0B1EC08F0C0
:10268C0000C0A5F001C0A6F002C0A7F003C0A8F0DE
:10269C00A551A611A711A81142E00A0E046E000E56
:1026AC00056E066E076EA5C000F0A6C001F0A7C0AF
:1026BC0002F0A8C003F0C1EC0BF008C000F009C098
:1026CC0001F00AC002F00BC003F0000E046E0318F8
:1026DC0008E10450021805E10450011802E1005011
:1026EC00000A1DE1010E985F000E995B0A0E046E44
:1026FC00000E056E066E076EA5C000F0A6C001F0B8
:10270C00A7C002F0A8C003F0C1EC0BF000C0A5F00C
:10271C0001C0A6F002C0A7F003C0A8F0B9D7800E84
:10272C009919006E800E005C02E19A51985D21E2CD
:10273C0098519A5DB16FDFEC05F000C004F001C058
:10274C0005F002C006F003C007F09FC000F0A0C067
:10275C0001F0A1C002F0A2C003F075EC04F000C0BF
:10276C009FF001C0A0F002C0A1F003C0A2F098C07D
:10277C009AF0050E00019825006E000E9921016E4D
:10278C0000509B5F01509C5B9851991103E19EB7DF
:10279C0001D004D0010E9B5F000E9C5B030E9D15B7
:1027AC00006E9EC001F0000E01160050011004E0F6
:1027BC00010E9B5F000E9C5B9DA539D09DA312D092
:1027CC009DA103D02D0E906F02D02B0E906F89C05F
:1027DC00E1FF8AC0E2FF90C0E6FF894B8A2BA94B30
:1027EC00AA2B0CD09DA10AD089C0E1FF8AC0E2FFC0
:1027FC00200EE66E894B8A2BA94BAA2B800E006EFD
:10280C00800E9C19005C02E19B5100080FE289C00C
:10281C00E1FF8AC0E2FF300EE66E894B8A2BA94B92
:10282C00AA2B010E9B5F000E9C5BE8D73AD09DB79C
:10283C0018D0800E006E800E9C19005C02E19B513A
:10284C0000080FE289C0E1FF8AC0E2FF200EE66EAD
:10285C00894B8A2BA94BAA2B010E9B5F000E9C5B0C
:10286C00E8D79DA312D09DA103D02D0E916F02D05D
:10287C002B0E916F89C0E1FF8AC0E2FF91C0E6FF89
:10288C00894B8A2BA94BAA2B0CD09DA10AD089C0AD
:10289C00E1FF8AC0E2FF200EE66E894B8A2BA94B22
:1028AC00AA2B9FC000F0A0C001F0A1C002F0A2C0F2
:1028BC0003F0B1EC08F000C0A5F001C0A6F002C016
:1028CC00A7F003C0A8F09AC000F0000E016E026ED3
:1028DC00036E003600900136023603360036009047
:1028EC000136023603362C0E0024F66E540E0120EF
:1028FC00F76E000E0220F86E0900F5CF04F0090007
:10290C00F5CF05F00900F5CF06F00900F5CF07F07B
:10291C00A5C000F0A6C001F0A7C002F0A8C003F04B
:10292C00C1EC0BF0300E002689C0E1FF8AC0E2FF3B
:10293C0000C0E6FF894B8A2BA94BAA2B9851991101
:10294C0003E19EB701D06FD089C0E1FF8AC0E2FFDE
:10295C002E0EE66E894B8A2BA94BAA2B9A51985FA7
:10296C00000E995B9A534DE09A079AC000F0000E46
:10297C00016E026E036E003600900136023603368D
:10298C00003600900136023603362C0E0024F66E0B
:10299C00540E0120F76E000E0220F86E0900F5CFE0
:1029AC0004F00900F5CF05F00900F5CF06F0090099
:1029BC00F5CF07F0A5C000F0A6C001F0A7C002F04B
:1029CC00A8C003F0C1EC0BF00A0E046E000E056EED
:1029DC00066E076EC1EC0BF008C000F009C001F0E8
:1029EC000AC002F00BC003F0300E002689C0E1FFD4
:1029FC008AC0E2FF00C0E6FF894B8A2BA94BAA2BA9
:102A0C00B1D7985199110FE089C0E1FF8AC0E2FF5C
:102A1C00300EE66E894B8A2BA94BAA2B010E985FC0
:102A2C00000E995BEED79DAB0BD089C0E1FF8AC03D
:102A3C00E2FF450EE66E894B8A2BA94BAA2B0AD0D6
:102A4C0089C0E1FF8AC0E2FF650EE66E894B8A2BD6
:102A5C00A94BAA2B800EA419006E800E005C02E11B
:102A6C00000EA35D11E2A3510008A36FA451000E48
:102A7C00A45789C0E1FF8AC0E2FF2D0EE66E894B98
:102A8C008A2BA94BAA2B0AD089C0E1FF8AC0E2FF8E
:102A9C002B0EE66E894B8A2BA94BAA2B0A0E046EC1
:102AAC00000E056EA3C000F0A4C001F04EEC0DF0BA
:102ABC00300E002689C0E1FF8AC0E2FF00C0E6FFAD
:102ACC000001894B8A2BA94BAA2B0A0E046E000E0F
:102ADC00056EA3C000F0A4C001F04EEC0DF008C0D0
:102AEC0000F009C001F0300E002689C0E1FF8AC059
:102AFC00E2FF00C0E6FF0001894B8A2BA94BAA2BF1
:102B0C009DA71AD0800E006E800E9C19005C02E10D
:102B1C009B51000811E289C0E1FF8AC0E2FF200E40
:102B2C00E66E894B8A2BA94BAA2B010E9B5F000EDC
:102B3C009C5B9B519C11EFE1C3EF0DF09EA3F3D076
:102B4C00800EA419006E800E005C02E1000EA35DE5
:102B5C000AE2010EA35D006E000EA459016E005036
:102B6C00985F0150995B9FC000F0A0C001F0A1C01C
:102B7C0002F0A2C003F0B1EC08F000C0A5F001C057
:102B8C00A6F002C0A7F003C0A8F0010E9A6F9A51EC
:102B9C000A0A34E09AC000F0000E016E026E036E59
:102BAC0000360090013602360336003600900136AE
:102BBC00023603362C0E0024F66E540E0120F76EEE
:102BCC00000E0220F86E0900F5CF01F00900F5CFD8
:102BDC0002F00900F5CF03F00900F5CF04F0045022
:102BEC00A85D08E10350A75D05E10250A65D02E176
:102BFC000150A55D01E202D09A2BC9D79A51985D7C
:102C0C00AF6F000E9959B06FAFC098F0B0C099F08B
:102C1C00A5C000F0A6C001F0A7C002F0A8C003F048
:102C2C003BEC0DF000C004F001C005F002C006F052
:102C3C0003C007F09FC000F0A0C001F0A1C002F0DB
:102C4C00A2C003F037EC0DF000C0ABF001C0ACF04B
:102C5C0002C0ADF003C0AEF0AFC0B1F0DFEC05F0D8
:102C6C00ABC004F0ACC005F0ADC006F0AEC007F0D0
:102C7C00DFEC03F0000E046E000E056E000E066E07
:102C8C007E0E076E23EC01F0B1EC08F000C0A5F04D
:102C9C0001C0A6F002C0A7F003C0A8F0985199118A
:102CAC0042E00A0E046E000E056E066E076EA5C09D
:102CBC0000F0A6C001F0A7C002F0A8C003F0C1EC60
:102CCC000BF008C000F009C001F00AC002F00BC004
:102CDC0003F0000E046E031808E10450021805E11D
:102CEC000450011802E10050000A1DE10A0E046EA6
:102CFC00000E056E066E076EA5C000F0A6C001F0B2
:102D0C00A7C002F0A8C003F0C1EC0BF000C0A5F006
:102D1C0001C0A6F002C0A7F003C0A8F0010E985F96
:102D2C00000E995BBBD7800E006E800E9919005C6B
:102D3C0002E198510C0816E398C0B1F040EC0AF08F
:102D4C009FC004F0A0C005F0A1C006F0A2C007F01F
:102D5C0023EC01F000C09FF001C0A0F002C0A1F074
:102D6C0003C0A2F09FC000F0A0C001F0A1C002F00F
:102D7C00A2C003F0046A056A066A076A4DEC09F002
:102D8C00000ED8A4010E006E0052D8B477D09FC0AC
:102D9C0000F0A0C001F0A1C002F0A2C003F0B1ECA1
:102DAC0008F0000E046E031808E10450021805E147
:102DBC000450011802E10050000A60E1800E006E20
:102DCC00800EA419005C02E1A351010857E2A3C0D4
:102DDC00B1F0DFEC05F000C004F001C005F002C05A
:102DEC0006F003C007F09FC000F0A0C001F0A1C026
:102DFC0002F0A2C003F075EC04F05F0E046E700ECE
:102E0C00056E090E066E810E076E78EC05F0010E4C
:102E1C00D8B0000E006E005206E0090E0001A35F50
:102E2C00000EA45B05D00001080EA35F000EA45B8E
:102E3C00A3C0B1F0DFEC05F000C004F001C005F058
:102E4C0002C006F003C007F09FC000F0A0C001F064
:102E5C00A1C002F0A2C003F075EC04F0B1EC08F0D4
:102E6C0000C0A5F001C0A6F002C0A7F003C0A8F0F6
:102E7C0000019F6BA06BA16BA26B38D09FC000F0C0
:102E8C00A0C001F0A1C002F0A2C003F0B1EC08F0A8
:102E9C0000C0A5F001C0A6F002C0A7F003C0A8F0C6
:102EAC00A5C000F0A6C001F0A7C002F0A8C003F0B6
:102EBC003BEC0DF000C004F001C005F002C006F0C0
:102ECC0003C007F09FC000F0A0C001F0A1C002F049
:102EDC00A2C003F037EC0DF000C09FF001C0A0F0D1
:102EEC0002C0A1F003C0A2F0A36BA46B010E9A6FF9
:102EFC009A510A0A34E09AC000F0000E016E026E7C
:102F0C00036E003600900136023603360036009010
:102F1C000136023603362C0E0024F66E540E0120B8
:102F2C00F76E000E0220F86E0900F5CF01F00900D3
:102F3C00F5CF02F00900F5CF03F00900F5CF04F04E
:102F4C000450A85D08E10350A75D05E10250A65DA1
:102F5C0002E10150A55D01E202D09A2BC9D79A512A
:102F6C009825006E000E9921016EA3510026A451E4
:102F7C00012200509B5F01509C5B9EB704D098517E
:102F8C00991101E104D0010E9B5F000E9C5B030EB6
:102F9C009D15006E9EC001F0000E01160050011030
:102FAC0004E0010E9B5F000E9C5B9DA539D09DA398
:102FBC0012D09DA103D02D0E926F02D02B0E926FCA
:102FCC0089C0E1FF8AC0E2FF92C0E6FF894B8A2BE1
:102FDC00A94BAA2B0CD09DA10AD089C0E1FF8AC0B5
:102FEC00E2FF200EE66E894B8A2BA94BAA2B800E92
:102FFC00006E800E9C19005C02E19B5100080FE2F0
:10300C0089C0E1FF8AC0E2FF300EE66E894B8A2B45
:10301C00A94BAA2B010E9B5F000E9C5BE8D73AD004
:10302C009DB718D0800E006E800E9C19005C02E1DA
:10303C009B5100080FE289C0E1FF8AC0E2FF200E1D
:10304C00E66E894B8A2BA94BAA2B010E9B5F000EB7
:10305C009C5BE8D79DA312D09DA103D02D0E936F3E
:10306C0002D02B0E936F89C0E1FF8AC0E2FF93C0A0
:10307C00E6FF894B8A2BA94BAA2B0CD09DA10AD019
:10308C0089C0E1FF8AC0E2FF200EE66E894B8A2BD5
:10309C00A94BAA2B9AC000F09A0700524CE09AC098
:1030AC0000F0000E016E026E036E003600900136C9
:1030BC0002360336003600900136023603362C0EEB
:1030CC000024F66E540E0120F76E000E0220F86EEE
:1030DC000900F5CF04F00900F5CF05F00900F5CF94
:1030EC0006F00900F5CF07F0A5C000F0A6C001F06E
:1030FC00A7C002F0A8C003F0C1EC0BF00A0E046EDE
:10310C00000E056E066E076EC1EC0BF008C000F0E9
:10311C0009C001F00AC002F00BC003F0300E00260B
:10312C0089C0E1FF8AC0E2FF00C0E6FF894B8A2B11
:10313C00A94BAA2BAFD7800E006E800EA419005C91
:10314C0002E1A35100080FE289C0E1FF8AC0E2FF4F
:10315C00300EE66E894B8A2BA94BAA2B010EA35F6E
:10316C00000EA45BE8D7800E000A006E800E991941
:10317C00005C02E19851080803E2080E9A6F02D035
:10318C0098C09AF09A51985F000E995B9A5303E19C
:10319C009EB701D00AD089C0E1FF8AC0E2FF2E0E93
:1031AC00E66E894B8A2BA94BAA2B9AC0B1F0DFECA7
:1031BC0005F09FC004F0A0C005F0A1C006F0A2C0AD
:1031CC0007F0DFEC03F0A7EC09F000C0A5F001C09C
:1031DC00A6F002C0A7F003C0A8F09A534DE09A07DE
:1031EC009AC000F0000E016E026E036E0036009065
:1031FC0001360236033600360090013602360336AD
:10320C002C0E0024F66E540E0120F76E000E0220D8
:10321C00F86E0900F5CF04F00900F5CF05F00900B0
:10322C00F5CF06F00900F5CF07F0A5C000F0A6C059
:10323C0001F0A7C002F0A8C003F0C1EC0BF00A0E1D
:10324C00046E000E056E066E076EC1EC0BF008C026
:10325C0000F009C001F00AC002F00BC003F0300E00
:10326C00002689C0E1FF8AC0E2FF00C0E6FF894B5F
:10327C008A2BA94BAA2BB1D7985199110FE089C071
:10328C00E1FF8AC0E2FF300EE66E894B8A2BA94B18
:10329C00AA2B010E985F000E995BEED79DA71AD052
:1032AC00800E006E800E9C19005C02E19B510008A0
:1032BC0011E289C0E1FF8AC0E2FF200EE66E894B65
:1032CC008A2BA94BAA2B010E9B5F000E9C5B9B517A
:1032DC009C11EFE1C3EF0DF0C00E9D15016E9EC069
:1032EC0002F0000E0216000E021802E1000E011888
:1032FC00D8A480D09DA927D08EC0E9FF8FC0EAFF4B
:10330C00EECF00F0EECF01F000C0E9FF01C0EAFF04
:10331C00EECFA5F0EECFA6F0EECFA7F0EECFA8F053
:10332C008EC0E9FF8FC0EAFF040EEE24006E000E83
:10333C00EE20016E8EC0E1FF8FC0E2FF00C0E6FF01
:10334C0001C0E6FF2FD08EC0E9FF8FC0EAFFEECFA1
:10335C0000F0EECF01F000C0E9FF01C0EAFFEECFB4
:10336C0000F0EECF01F0000E01BEFF0E026E036EF8
:10337C0000C0A5F001C0A6F002C0A7F003C0A8F0E1
:10338C008EC0E9FF8FC0EAFF020EEE24006E000E25
:10339C00EE20016E8EC0E1FF8FC0E2FF00C0E6FFA1
:1033AC0001C0E6FF800EA819006E800E005C08E1DB
:1033BC00000EA75D05E1000EA65D02E1000EA55D05
:1033CC0018E2030E9D13000E9E13006A016A026A36
:1033DC00036AA551005EA651015AA751025AA85181
:1033EC00035A00C0A5F001C0A6F002C0A7F003C0AC
:1033FC00A8F04ED09DA927D08EC0E9FF8FC0EAFF60
:10340C00EECF00F0EECF01F000C0E9FF01C0EAFF03
:10341C00EECFA5F0EECFA6F0EECFA7F0EECFA8F052
:10342C008EC0E9FF8FC0EAFF040EEE24006E000E82
:10343C00EE20016E8EC0E1FF8FC0E2FF00C0E6FF00
:10344C0001C0E6FF25D08EC0E9FF8FC0EAFFEECFAA
:10345C0000F0EECF01F000C0E9FF01C0EAFFEECFB3
:10346C00A5F0EECFA6F0000EA76FA86F8EC0E9FFF7
:10347C008FC0EAFF020EEE24006E000EEE20016EED
:10348C008EC0E1FF8FC0E2FF00C0E6FF01C0E6FF87
:10349C00000E991902E1000E98190FE1000E006E52
:1034AC00A81908E10050A71905E10050A61902E17E
:1034BC00A551000A02E1984B992BC00E9D15006E88
:1034CC0000C005F0AED0010E9A6F9A510A0A34E092
:1034DC009AC000F0000E016E026E036E0036009072
:1034EC0001360236033600360090013602360336BA
:1034FC002C0E0024F66E540E0120F76E000E0220E6
:10350C00F86E0900F5CF01F00900F5CF02F00900C3
:10351C00F5CF03F00900F5CF04F00450A85D08E1E5
:10352C000350A75D05E10250A65D02E10150A55DC7
:10353C0001E202D09A2BC9D782D0010E9A6F9A5110
:10354C00080A34E09AC000F0000E016E026E036EA1
:10355C0000360090013602360336003600900136F4
:10356C0002360336540E0024F66E540E0120F76E0C
:10357C00000E0220F86E0900F5CF01F00900F5CF1E
:10358C0002F00900F5CF03F00900F5CF04F0045068
:10359C00A85D08E10350A75D05E10250A65D02E1BC
:1035AC000150A55D01E202D09A2BC9D748D0010E7B
:1035BC009A6F9A510C0A34E09AC000F0000E016E1A
:1035CC00026E036E0036009001360236033600366A
:1035DC000090013602360336FC0E0024F66E530EB4
:1035EC000120F76E000E0220F86E0900F5CF01F0F5
:1035FC000900F5CF02F00900F5CF03F00900F5CF73
:10360C0004F00450A85D08E10350A75D05E10250E9
:10361C00A65D02E10150A55D01E202D09A2BC9D74B
:10362C000ED00550000AD8B44ED70550C00AD8B4F5
:10363C004AD70550800A81E00550400AB8E0800E58
:10364C00006E800E9919005C02E198519A5D03E2BC
:10365C0098C09AF00DD0800E9919006E800E005C07
:10366C0002E19A51985D04E29AC098F0000E996FAD
:10367C009B519C110EE0030E9D15006E9EC001F037
:10368C00000E01160050011004E0010E9B5F000EAD
:10369C009C5B800E9919006E800E9C19005C02E1F7
:1036AC009B51985D05E298519B5F99519C5B02D0B0
:1036BC009B6B9C6BC40E9D15016E9E51080B026E8C
:1036CC000250080A02E1400E011808E19B519C11BE
:1036DC0004E0010E9B5F000E9C5B1CD0C00E9D1580
:1036EC00016E9E51080B026E0250080A02E1800E18
:1036FC00011810E1800E006E800E9C19005C02E136
:10370C009B51020805E2020E9B5F000E9C5B02D0EF
:10371C009B6B9C6B9DA55DD09DA312D09DA103D0EE
:10372C002D0E946F02D02B0E946F89C0E1FF8AC0CE
:10373C00E2FF94C0E6FF894B8A2BA94BAA2B34D00D
:10374C009DA10BD089C0E1FF8AC0E2FF200EE66E7E
:10375C00894B8A2BA94BAA2B27D0C00E9D15016E25
:10376C009E51080B026E0250080A02E1800E0118ED
:10377C001BE189C0E1FF8AC0E2FF300EE66E894B87
:10378C008A2BA94BAA2B9DAB03D0580E956F02D058
:10379C00780E956F89C0E1FF8AC0E2FF95C0E6FF05
:1037AC00894B8A2BA94BAA2B9B519C1111E089C0E8
:1037BC00E1FF8AC0E2FF300EE66E894B8A2BA94BE3
:1037CC00AA2B010E9B5F000E9C5B9B519C11EFE1A1
:1037DC0074D09B519C1113E09DB711D089C0E1FFAF
:1037EC008AC0E2FF200EE66E894B8A2BA94BAA2BCE
:1037FC00010E9B5F000E9C5B9B519C11EFE19DA306
:10380C0012D09DA103D02D0E966F02D02B0E966F69
:10381C0089C0E1FF8AC0E2FF96C0E6FF894B8A2B84
:10382C00A94BAA2B0CD09DA10AD089C0E1FF8AC05C
:10383C00E2FF200EE66E894B8A2BA94BAA2BC00EF9
:10384C009D15016E9E51080B026E0250080A02E192
:10385C00400E01180BE189C0E1FF8AC0E2FF300E77
:10386C00E66E894B8A2BA94BAA2B27D0C00E9D152F
:10387C00016E9E51080B026E0250080A02E1800E86
:10388C0001181BE189C0E1FF8AC0E2FF300EE66E31
:10389C00894B8A2BA94BAA2B9DAB03D0580E976F43
:1038AC0002D0780E976F89C0E1FF8AC0E2FF97C003
:1038BC00E6FF894B8A2BA94BAA2B800E006E800E3B
:1038CC009919005C02E198519A5D0BE289C0E1FF05
:1038DC008AC0E2FF300EE66E894B8A2BA94BAA2BCD
:1038EC00ECD798C000F099C001F0010E985F000E63
:1038FC00995B00500110D8B42AD1C00E9D15006EF2
:10390C0000C0ABF00AD198C000F099C001F0000ED5
:10391C0099BFFF0E026E036E003600900136023620
:10392C000336003600900136023603362C0E002486
:10393C00F66E540E0120F76E000E0220F86E090090
:10394C00F5CF04F00900F5CF05F00900F5CF06F02E
:10395C000900F5CF07F0A5C000F0A6C001F0A7C084
:10396C0002F0A8C003F0C1EC0BF00A0E046E000EBE
:10397C00056E066E076EC1EC0BF008C000F009C0B6
:10398C0001F00AC002F00BC003F0300E00249A6F55
:10399C00D3D09DAB45D098C000F099C001F0000E7B
:1039AC0099BFFF0E026E036E003600900136023690
:1039BC00033600360090013602360336540E0024CE
:1039CC00F66E540E0120F76E000E0220F86E090000
:1039DC00F5CF04F00900F5CF05F00900F5CF06F09E
:1039EC000900F5CF07F0A5C000F0A6C001F0A7C0F4
:1039FC0002F0A8C003F0C1EC0BF00F0E0016000E85
:103A0C000116021603168B0E0024F66E540E0120BE
:103A1C00F76E000E0220F86E0900F5CF9AF044D034
:103A2C0098C000F099C001F0000E99BFFF0E026E15
:103A3C00036E0036009001360236033600360090D5
:103A4C00013602360336540E0024F66E540E012055
:103A5C00F76E000E0220F86E0900F5CF04F0090095
:103A6C00F5CF05F00900F5CF06F00900F5CF07F00A
:103A7C00A5C000F0A6C001F0A7C002F0A8C003F0DA
:103A8C00C1EC0BF00F0E0016000E011602160316F9
:103A9C009C0E0024F66E540E0120F76E000E0220D0
:103AAC00F86E0900F5CF9AF047D098C000F099C095
:103ABC0001F0000E99BFFF0E026E036E00360090EF
:103ACC0001360236033600360090013602360336D4
:103ADC00FC0E0024F66E530E0120F76E000E022031
:103AEC00F86E0900F5CF04F00900F5CF05F00900D8
:103AFC00F5CF06F00900F5CF07F0A5C000F0A6C081
:103B0C0001F0A7C002F0A8C003F0C1EC0BF0070E47
:103B1C0000149A6F300E9A270FD0AB51000AD8B40C
:103B2C00F2D6AB51C00AD8B4EED6AB51800AD8B499
:103B3C0030D7AB51400AB9E089C0E1FF8AC0E2FF3F
:103B4C009AC0E6FF894B8A2BA94BAA2BCAD69DA7F4
:103B5C001AD0800E006E800E9C19005C02E19B5105
:103B6C00000811E289C0E1FF8AC0E2FF200EE66E78
:103B7C00894B8A2BA94BAA2B010E9B5F000E9C5BD9
:103B8C009B519C11EFE1C3EF0DF0A9C000F0AAC04E
:043B9C0001F0120022
:0E3BA0004C9089C0B1F064EC09F04C8012002A
:103BAE00000181A755D07DC082F08233829F82337F
:103BBE00829F8233829F050E016E7EC000F00150FF
:103BCE0004E000360090FF0FFBD700508213829066
:103BDE004AC0E1FF4BC0E2FF020EE66E48C000F0A5
:103BEE0049C001F0B2EC0DF04AC0E1FF4BC0E2FF5C
:103BFE007CC0E6FF48C000F049C001F0B2EC0DF009
:103C0E004AC0E1FF4BC0E2FF82C0E6FF48C000F0B1
:103C1E0049C001F0B2EC0DF0050E016E7DC000F052
:103C2E00015004E000360090FF0FFBD700C082F079
:103C3E004AC0E1FF4BC0E2FF00C0E6FF48C000F003
:103C4E0049C001F0B2EC0DF0828072EC04F07FD02E
:103C5E00050E006E7FC082F0005005E00001823339
:103C6E00829FFF0FFAD7000180C000F0003600904F
:103C7E0000360090003600900050821382904AC0A9
:103C8E00E1FF4BC0E2FF020EE66E48C000F049C0F5
:103C9E0001F0B2EC0DF04AC0E1FF4BC0E2FF7CC078
:103CAE00E6FF48C000F049C001F0B2EC0DF04AC08A
:103CBE00E1FF4BC0E2FF82C0E6FF48C000F049C002
:103CCE0001F0B2EC0DF07FC000F00036009000362F
:103CDE00009000360090E00E001600C082F0080E34
:103CEE000010016E01C082F0030E00017F15006E00
:103CFE000150001200C082F04AC0E1FF4BC0E2FF4B
:103D0E0000C0E6FF48C000F049C001F0B2EC0DF073
:103D1E007EC082F04AC0E1FF4BC0E2FF7EC0E6FFEC
:103D2E0048C000F049C001F0B2EC0DF07DC082F049
:103D3E004AC0E1FF4BC0E2FF7DC0E6FF48C000F085
:103D4E0049C001F0B2EC0DF0828072EC04F012006A
:103D5E00810E0001876F000E886F7CC089F07DC0D8
:103D6E008AF07EC08BF07FC08CF080C08DF0870E05
:103D7E008E6F000E8F6FBEEC0DF000C085F001C08F
:103D8E0086F000507C25E16E01507D21E26EE66AE0
:0A3D9E0085C000F086C001F012009D
:103DA80010D0800E00017C6F1AD0C00E7C6F17D027
:103DB800940E7C6F14D0D40E7C6F11D0800E7C6F63
:103DC8000ED000017C51010AECE07C51020AEDE0C2
:103DD8007C51030AEDE07C51040AEDE0EFD77D0544
:103DE800006E7C51002600C07CF000C0B1F064EC8D
:103DF80009F04C90806B80517E25E96E000E7F2182
:103E0800EA6EEE520BE080517E25E96E000E7F21AE
:103E1800EA6EEECF89F0C0DE802BEDD74C80120021
:103E280082904AC0E1FF4BC0E2FF030EE66E48C035
:103E380000F049C001F0B2EC0DF04AC0E1FF4BC000
:103E4800E2FF300EE66E48C000F049C001F0B2EC67
:103E58000DF04AC0E1FF4BC0E2FFE66A48C000F03F
:103E680049C001F0B2EC0DF000C079F0828072EC2C
:103E780004F0000179B702D0796B60D082904AC013
:103E8800E1FF4BC0E2FF030EE66E48C000F049C0F8
:103E980001F0B2EC0DF04AC0E1FF4BC0E2FF400E6A
:103EA800E66E48C000F049C001F0B2EC0DF04AC01F
:103EB800E1FF4BC0E2FFE66A48C000F049C001F0EC
:103EC800B2EC0DF000C079F0828072EC04F00001D1
:103ED80079B703D0100E796F31D082904AC0E1FFD4
:103EE8004BC0E2FF030EE66E48C000F049C001F087
:103EF800B2EC0DF04AC0E1FF4BC0E2FF500EE66E97
:103F080048C000F049C001F0B2EC0DF04AC0E1FF32
:103F18004BC0E2FFE66A48C000F049C001F0B2ECCD
:103F28000DF000C079F0828072EC04F0000179B7DE
:103F380003D0200E796F02D0006AEED0300E7927B8
:103F480082904AC0E1FF4BC0E2FF020EE66E48C015
:103F580000F049C001F0B2EC0DF04AC0E1FF4BC0DF
:103F6800E2FF79C0E6FF48C000F049C001F0B2ECBA
:103F78000DF0030E00017815006E00C07BF04AC0FA
:103F8800E1FF4BC0E2FF00C0E6FF48C000F049C0B7
:103F980001F0B2EC0DF0828072EC04F0000178B709
:103FA80003D0F70E7B6F02D0FF0E7B6F7951010FA4
:103FB8007C6F71C07DF072C07EF073C07FF074C0FA
:103FC80080F07BC081F0EFDD77C07BF0000178BD29
:103FD80001D07B8D82904AC0E1FF4BC0E2FF020E08
:103FE800E66E48C000F049C001F0B2EC0DF0050ED5
:103FF80000017925006E4AC0E1FF4BC0E2FF00C016
:10400800E6FF48C000F049C001F0B2EC0DF04AC02C
:10401800E1FF4BC0E2FF7BC0E6FF48C000F049C0AB
:1040280001F0B2EC0DF0828072EC04F072EC04F056
:1040380082904AC0E1FF4BC0E2FF020EE66E48C024
:1040480000F049C001F0B2EC0DF0060E0001792530
:10405800006E4AC0E1FF4BC0E2FF00C0E6FF48C067
:1040680000F049C001F0B2EC0DF000017A6B775115
:104078007A5D15E27A517525E96E000E7621EA6EB1
:104088004AC0E1FF4BC0E2FFEECFE6FF48C000F0B8
:1040980049C001F0B2EC0DF000017A2BE8D782801C
:1040A80072EC04F072EC04F0829027D04AC0E1FF71
:1040B8004BC0E2FF810EE66E48C000F049C001F037
:1040C800B2EC0DF024D04AC0E1FF4BC0E2FF820EF3
:1040D800E66E48C000F049C001F0B2EC0DF017D010
:1040E8004AC0E1FF4BC0E2FF830EE66E48C000F015
:1040F80049C001F0B2EC0DF00AD000017951300A44
:10410800D5E07951400ADFE07951500AE9E0828030
:0A41180072EC04F0FF0E006E1200BE
:10412200020E0C6E490E0D6E0D2EFED70C2EFCD714
:0641320000000000120075
:10413800010E0001B16F64EC09F0350E7C6F000EC2
:104148007D6FB80E7E6F540E7F6F000E806F1BC0A0
:1041580081F01CC082F03DC083F03EC084F0FBDDDE
:10416800010E7C6F010E7D6F350E7E6F000E7F6F26
:1041780017DE350E7C6F000E7D6FAD0E7E6F540E10
:104188007F6F000E806F17C081F018C082F015C0D5
:1041980083F016C084F0DFDD020E7C6F010E7D6FA8
:0C41A800350E7E6F000E7F6FFBDD1200F5
:1041B40012D000016F6B20D0040E6F6F1DD0080E5B
:1041C4006F6F1AD0100E6F6F17D0140E6F6F14D05C
:1041D400180E6F6F11D000016951000AEAE06951AD
:1041E400010AEAE06951020AEAE06951030AEAE0D5
:1041F4006951040AEAE0ECD76FC07CF06AC07DF034
:104204006BC07EF06CC07FF06DC080F06EC081F03A
:04421400CCDC1200EC
:1042180000016AA770D082904AC0E1FF4BC0E2FF5C
:10422800030EE66E48C000F049C001F0B2EC0DF094
:104238004AC0E1FF4BC0E2FF69C0E6FF48C000F09A
:1042480049C001F0B2EC0DF04AC0E1FF4BC0E2FFFB
:10425800E66A48C000F049C001F0B2EC0DF000C0B9
:104268006CF0050E016E00C06DF0000E00016E6F5F
:104278006F6F706F015004E06D336D9FFF0FFBD7B8
:10428800000E6E6F6F6F706F6FC070F06EC06FF062
:104298006DC06EF06D6B00C001F001360190013603
:1042A80001900136019001506D13000E6E136F13CB
:1042B80070134AC0E1FF4BC0E2FFE66A48C000F055
:1042C80049C001F0B2EC0DF000C06CF0828072ECD5
:1042D80004F0050E016E6CC000F0015004E00032DD
:1042E800009EFF0FFBD7005000016D13000E6E13E8
:1042F8006F137013B3D06D6B6E6B6F6B706B8290B6
:104308004AC0E1FF4BC0E2FF030EE66E48C000F072
:1043180049C001F0B2EC0DF04AC0E1FF4BC0E2FF2A
:1043280069C0E6FF48C000F049C001F0B2EC0DF0EA
:104338004AC0E1FF4BC0E2FFE66A48C000F049C04E
:1043480001F0B2EC0DF000C06CF0050E016E00C07B
:104358006BF0015005E000016B376B91FF0FFAD746
:104368000001030E016E00C06DF0000E6E6F6F6FDE
:10437800706F015004E06D336D9FFF0FFBD7000E87
:104388006E6F6F6F706F6FC070F06EC06FF06DC042
:104398006EF06D6B4AC0E1FF4BC0E2FFE66A48C0B1
:1043A80000F049C001F0B2EC0DF000C06CF0030E53
:1043B8000014016E00016B510110036E03C06BF015
:1043C800E00E0014026E02C000F00032009E0032BF
:1043D800009E0032009E0350001200C06BF0005097
:1043E8006D13000E6E136F1370136FC070F06EC0F4
:1043F8006FF06DC06EF06D6B4AC0E1FF4BC0E2FF1D
:10440800E66A48C000F049C001F0B2EC0DF000C007
:104418006CF0005000016D13000E6E136F137013D3
:104428006FC070F06EC06FF06DC06EF06D6B4AC0FB
:10443800E1FF4BC0E2FFE66A48C000F049C001F066
:10444800B2EC0DF000C06CF0828072EC04F0000158
:104458006C516D13000E6E136F1370136DC000F066
:0E4468006EC001F06FC002F070C003F01200D1
:1044760000016951000A0FE1200E7C6F6AC07DF0D1
:104486006BC07EF06CC07FF06DC080F06EC081F0B6
:10449600D7EC1DF00FD0240E00017C6F6AC07DF0B2
:1044A6006BC07EF06CC07FF06DC080F06EC081F096
:0644B600D7EC1DF012001E
:1044BC00000169076A076B076C076D07060E006E33
:1044CC0069C06FF0005004E06F376F91FF0FFBD79E
:1044DC006A516F1382904AC0E1FF4BC0E2FF020E9B
:1044EC00E66E48C000F049C001F0B2EC0DF04AC0D5
:1044FC00E1FF4BC0E2FF2A0EE66E48C000F049C057
:10450C0001F0B2EC0DF04AC0E1FF4BC0E2FF6FC00E
:10451C00E6FF48C000F049C001F0B2EC0DF082801B
:10452C0072EC04F06BC06FF000016F376F916F3756
:10453C006F916F376F916D516F136EB501D06F8D99
:10454C006EA101D06F8F82904AC0E1FF4BC0E2FF99
:10455C00020EE66E48C000F049C001F0B2EC0DF05E
:10456C004AC0E1FF4BC0E2FF290EE66E48C000F0E6
:10457C0049C001F0B2EC0DF04AC0E1FF4BC0E2FFC4
:10458C006FC0E6FF48C000F049C001F0B2EC0DF07E
:10459C00828072EC04F06CC06FF000016EA301D04D
:1045AC006F8D82904AC0E1FF4BC0E2FF020EE66EB7
:1045BC0048C000F049C001F0B2EC0DF04AC0E1FF78
:1045CC004BC0E2FF280EE66E48C000F049C001F077
:1045DC00B2EC0DF04AC0E1FF4BC0E2FF6FC0E6FF4A
:1045EC0048C000F049C001F0B2EC0DF0828072ECD2
:0445FC0004F01200B5
:1046000082904AC0E1FF4BC0E2FF020EE66E48C056
:1046100000F049C001F0B2EC0DF04AC0E1FF4BC020
:10462000E2FFFF0EE66E48C000F049C001F0B2ECB8
:104630000DF04AC0E1FF4BC0E2FF69C0E6FF48C091
:1046400000F049C001F0B2EC0DF0828072EC04F091
:1046500000016A5330E082904AC0E1FF4BC0E2FFA4
:10466000030EE66E48C000F049C001F0B2EC0DF058
:104670004AC0E1FF4BC0E2FFFE0EE66E48C000F00C
:1046800049C001F0B2EC0DF04AC0E1FF4BC0E2FFBF
:10469000E66A48C000F049C001F0B2EC0DF000C07D
:1046A0006BF0828072EC04F0E00E00016B15016E7D
:0846B00001506919D0E112006C
:0C46B800060E0D6E0D2EFED70000120045
:0C46C4000E0E0D6E0D2EFED70000120031
:1046D00000016F6B6BC001F0010E006E015004E031
:1046E00000360090FF0FFBD700C06EF069C0E9FFF5
:1046F0006AC0EAFF0050EE14016E0152010ED8A408
:10470000000E006E6D51001A18E06C51000804E2B2
:1047100008DD07DD6C07F9D769C0E9FF6AC0EAFF69
:104720006E51EE14016E0152010ED8A4000E006EFF
:104730006D51001A02E0FF0E6F6F6FC000F01200A3
:104740003EC000F0016A00C03FF0FF0E3D14406E15
:104750001BC041F04F0E0001716F2F0E726F000EE3
:10476000736F000E746F3F0E756F000E766F030E41
:0E477000776F47C078F014EC1FF0DEDC12000B
:10477E009494949082848280829497DF828495DFD1
:10478E00800E0001696FFF0E6A6F33DF5AC069F049
:10479E005BC06AF05CC06BF05DC06CF05EC06DF02B
:1047AE005FC06EF084DE600E5F140001606F100E4D
:1047BE005F14016E0150100AD8B4608582904AC011
:1047CE00E1FF4BC0E2FF020EE66E48C000F049C0AA
:1047DE0001F0B2EC0DF04AC0E1FF4BC0E2FF600EFB
:1047EE00E66E48C000F049C001F0B2EC0DF04AC0D0
:1047FE00E1FF4BC0E2FF60C0E6FF48C000F049C0D9
:10480E0001F0B2EC0DF0828072EC04F072EC04F068
:10481E0082904AC0E1FF4BC0E2FF020EE66E48C036
:10482E0000F049C001F0B2EC0DF04AC0E1FF4BC000
:10483E00E2FF700EE66E48C000F049C001F0B2EC27
:10484E000DF04AC0E1FF4BC0E2FF60C0E6FF48C07A
:10485E0000F049C001F0B2EC0DF0828072EC04F071
:10486E000001696B6A6B6B6B6C6B6D6BF70E6E6F29
:10487E00FBDD010E0001696F6A6B6B6B6C6B6D6B10
:10488E00F70E6E6FF1DD600E5F14006E9F0E00105E
:10489E00016E12D0F70E0001616FF70E626F13D02A
:1048AE000001FF0E616FFF0E626F0DD00001FF0E53
:1048BE00616FF70E626F07D00150DF0AEBE0015017
:1048CE00BF0AEEE0F3D70001696B6A6B6B6B6C6B22
:1048DE006D6B61C06EF067DC010E0001696F6A6B73
:1048EE006B6B6C6B6D6B61C06EF05DDC020E00016C
:1048FE00606F605105080CE360C069F06A6B6B6B0A
:10490E006C6B6D6B62C06EF04EDC0001602BF1D7EC
:0A491E00696BFF0E6A6F6DDE120078
:10492800830E0001696F0F0E6A6F010E6B6F010E27
:104938006C6F010E6D6FC8DE005204E0010E196E37
:10494800000E1A6E830E696F0F0E6A6F010E6B6F81
:10495800010E6C6F6D6BB8DE000E016E19500016FB
:104968001A5001160050011007E0196A1A6A010E60
:0A4978001B5E000E1C5AE0DE120068
:104982000900F5CFE6FF0006FBE10106F9E112009E
:10499200C69A640E486E0A0E496EB10E4A6E000E39
:1049A2004B6EFF0E4D6EFF0E4E6EFF0E4F6EFF0EE4
:1049B200506E949A94969488C66A400EC76EC68AC0
:0249C2001200E1
:1049C400939A93989390939293949396819A8198BF
:1049D400819681948192819085EC03F085EC03F0BB
:1049E40085EC03F081828180818A72EC04F0819AE3
:1049F40085EC03F0818A72EC04F0819A85EC03F073
:104A0400818A72EC04F0819A85EC03F08190818AAA
:104A140072EC04F0819A85EC03F0818A72EC04F064
:104A2400819A81928186818A72EC04F0819A85EC64
:104A340003F081968180818A72EC04F0819A8190DE
:104A4400818A72EC04F0819A85EC03F0818A72EC1D
:104A540004F0819A8180818A72EC04F0819A85EC59
:104A640003F08190818A72EC04F0819A81868184BA
:104A740081828180818A72EC04F0819A85EC03F052
:044A84004C80120050
:104A8800830E0001696F0F0E6A6F6B6B010E6C6FFE
:104A9800010E6D6F19DE005204E0010E1D6E000E4E
:104AA8001E6E830E696F0F0E6A6F6B6B010E6C6F53
:104AB8006D6B0ADE000E016E1D5000161E500116A9
:104AC8000050011005E01D6A1E6A1B4A1C2A34DECC
:024AD8001200CA
:104ADA00C26A1F1C006E0050C1160F0EC012C08E93
:104AEA005AC000F000360090003600900050C21202
:104AFA00C280E3DDC282C2A201D0FDD7C4CF01F0D9
:104B0A00006A00C05BF001C05CF0C3500012000EE6
:104B1A00011200C05BF001C05CF0C290000E0014EC
:104B2A00026E0150800B036E000E031802E1000EA4
:104B3A00021802E05B6A5C6A5BC000F05CC001F0CC
:024B4A00120057
:104B4C0067C0E1FF68C0E2FFE66A82904AC0E1FFFD
:104B5C004BC0E2FF030EE66E48C000F049C001F006
:104B6C00B2EC0DF04AC0E1FF4BC0E2FF2C0EE66E3A
:104B7C0048C000F049C001F0B2EC0DF04AC0E1FFB2
:104B8C004BC0E2FFE66A48C000F049C001F0B2EC4D
:104B9C000DF000C05AF0828072EC04F05AA0E3D001
:104BAC00FF0E5D6E82904AC0E1FF4BC0E2FF050E26
:104BBC00E66E48C000F049C001F0B2EC0DF04AC0FE
:104BCC00E1FF4BC0E2FF2C0EE66E48C000F049C07E
:104BDC0001F0B2EC0DF04AC0E1FF4BC0E2FF010E58
:104BEC00E66E48C000F049C001F0B2EC0DF04AC0CE
:104BFC00E1FF4BC0E2FFE66A48C000F049C001F09B
:104C0C00B2EC0DF0828072EC04F072EC04F0829045
:104C1C004AC0E1FF4BC0E2FF030EE66E48C000F055
:104C2C0049C001F0B2EC0DF04AC0E1FF4BC0E2FF0D
:104C3C002D0EE66E48C000F049C001F0B2EC0DF04C
:104C4C004AC0E1FF4BC0E2FFE66A48C000F049C031
:104C5C0001F0B2EC0DF000C05AF0828072EC04F05E
:104C6C005AAE3CD067C0E9FF68C0EAFF67C0E1FFFD
:104C7C0068C0E2FFE68682904AC0E1FF4BC0E2FFCB
:104C8C00050EE66E48C000F049C001F0B2EC0DF024
:104C9C004AC0E1FF4BC0E2FF2D0EE66E48C000F0AB
:104CAC0049C001F0B2EC0DF04AC0E1FF4BC0E2FF8D
:104CBC00800EE66E48C000F049C001F0B2EC0DF079
:104CCC004AC0E1FF4BC0E2FFE66A48C000F049C0B1
:104CDC0001F0B2EC0DF0828072EC04F072EC04F096
:104CEC0082904AC0E1FF4BC0E2FF030EE66E48C063
:104CFC0000F049C001F0B2EC0DF04AC0E1FF4BC02E
:104D0C00E2FF600EE66E48C000F049C001F0B2EC64
:104D1C000DF04AC0E1FF4BC0E2FFE66A48C000F06C
:104D2C0049C001F0B2EC0DF000C05AF0828072EC78
:104D3C0004F05AA417D0070E5A14006E67C0E9FF8E
:104D4C0068C0EAFF67C0E1FF68C0E2FF0050EE12E6
:104D5C0067C0E9FF68C0EAFF67C0E1FF68C0E2FF17
:104D6C00010EEE1618D167C0E1FF68C0E2FFE66ADB
:104D7C0082904AC0E1FF4BC0E2FF030EE66E48C0D2
:104D8C0000F049C001F0B2EC0DF04AC0E1FF4BC09D
:104D9C00E2FF2C0EE66E48C000F049C001F0B2EC08
:104DAC000DF04AC0E1FF4BC0E2FFE66A48C000F0DC
:104DBC0049C001F0B2EC0DF000C05AF0828072ECE8
:104DCC0004F05AA2E6D05D6A82904AC0E1FF4BC063
:104DDC00E2FF050EE66E48C000F049C001F0B2ECEF
:104DEC000DF04AC0E1FF4BC0E2FF2C0EE66E48C04E
:104DFC0000F049C001F0B2EC0DF04AC0E1FF4BC02D
:104E0C00E2FF020EE66E48C000F049C001F0B2ECC1
:104E1C000DF04AC0E1FF4BC0E2FFE66A48C000F06B
:104E2C0049C001F0B2EC0DF0828072EC04F072EC2F
:104E3C0004F082904AC0E1FF4BC0E2FF030EE66E25
:104E4C0048C000F049C001F0B2EC0DF04AC0E1FFDF
:104E5C004BC0E2FF2D0EE66E48C000F049C001F0D9
:104E6C00B2EC0DF04AC0E1FF4BC0E2FFE66A48C06D
:104E7C0000F049C001F0B2EC0DF000C05AF0828095
:104E8C0072EC04F05AAC3CD067C0E9FF68C0EAFF92
:104E9C0067C0E1FF68C0E2FFE68682904AC0E1FF8E
:104EAC004BC0E2FF050EE66E48C000F049C001F0B1
:104EBC00B2EC0DF04AC0E1FF4BC0E2FF2D0EE66EE6
:104ECC0048C000F049C001F0B2EC0DF04AC0E1FF5F
:104EDC004BC0E2FF400EE66E48C000F049C001F046
:104EEC00B2EC0DF04AC0E1FF4BC0E2FFE66A48C0ED
:104EFC0000F049C001F0B2EC0DF0828072EC04F0CD
:104F0C0072EC04F082904AC0E1FF4BC0E2FF030E4A
:104F1C00E66E48C000F049C001F0B2EC0DF04AC09A
:104F2C00E1FF4BC0E2FF700EE66E48C000F049C0D6
:104F3C0001F0B2EC0DF04AC0E1FF4BC0E2FFE66AB3
:104F4C0048C000F049C001F0B2EC0DF000C05AF0BE
:104F5C00828072EC04F0070E5A14006E67C0E9FFF1
:104F6C0068C0EAFF67C0E1FF68C0E2FF0050EE12C4
:104F7C0067C0E9FF68C0EAFF020EEE5C09E267C099
:104F8C00E9FF68C0EAFF67C0E1FF68C0E2FFE68E98
:104F9C0002D0006A11D182904AC0E1FF4BC0E2FFFF
:104FAC00030EE66E48C000F049C001F0B2EC0DF003
:104FBC005D521AE04AC0E1FF4BC0E2FF650EE66E9F
:104FCC0048C000F049C001F0B2EC0DF04AC0E1FF5E
:104FDC004BC0E2FFE66A48C000F049C001F0B2ECF9
:104FEC000DF000C05AF019D04AC0E1FF4BC0E2FFEF
:104FFC00750EE66E48C000F049C001F0B2EC0DF041
:10500C004AC0E1FF4BC0E2FFE66A48C000F049C06D
:10501C0001F0B2EC0DF000C05AF0828072EC04F09A
:10502C0065C0E1FF66C0E2FF5AC0E6FF5AAC09D08A
:10503C0067C0E9FF68C0EAFF67C0E1FF68C0E2FF34
:10504C00E68C82904AC0E1FF4BC0E2FF030EE66E95
:10505C0048C000F049C001F0B2EC0DF05D521CE00C
:10506C004AC0E1FF4BC0E2FF620EE66E48C000F0A2
:10507C0049C001F0B2EC0DF04AC0E1FF4BC0E2FFB9
:10508C00E66A48C000F049C001F0B2EC0DF000C077
:10509C005AF0610E5C6E1BD04AC0E1FF4BC0E2FFC0
:1050AC00720EE66E48C000F049C001F0B2EC0DF093
:1050BC004AC0E1FF4BC0E2FFE66A48C000F049C0BD
:1050CC0001F0B2EC0DF000C05AF0710E5C6E8280F3
:1050DC0072EC04F05AA61DD067C0E9FF68C0EAFF65
:1050EC0067C0E1FF68C0E2FFE68A5CC069F0F70EBA
:1050FC0000016A6F0CEC21F061C0E1FF62C0E2FFBD
:10510C0000C0E6FF01C0E6FF02C0E6FF03C0E6FFF9
:10511C0013D000015CC069F0FF0E6A6F0CEC21F03B
:10512C0061C0E1FF62C0E2FF00C0E6FF01C0E6FF24
:10513C0002C0E6FF03C0E6FF050E5C2682904AC063
:10514C00E1FF4BC0E2FF030EE66E48C000F049C021
:10515C0001F0B2EC0DF04AC0E1FF4BC0E2FF5CC0C5
:10516C00E6FF48C000F049C001F0B2EC0DF05B6AFC
:10517C0065C0D9FF66C0DAFFDE505B5C18E24AC03E
:10518C00E1FF4BC0E2FFE66A48C000F049C001F005
:10519C00B2EC0DF000C05AF05B5000016325E16EDB
:1051AC00000E6421E26E00C0E6FF5B2AE1D782802C
:0A51BC0072EC04F0FF0E006E12000A
:1051C6002DC016F0156A2E501512000E16122FC09D
:0C51D60017F0000E186E9CEC20F0120088
:1051E200800E5B18006E800E005C02E1000E5A5CBD
:1051F20008E25A500008006E5BC001F0000E015632
:0C52020004D05AC000F05BC001F01200A4
:10520E0062EC2AF00F013A6B020E386F396B928204
:10521E003B6B958095822C6A476A536AF40E476EF3
:10522E00D30E2C6EE2EC24F00C0E0001B16F64EC88
:10523E0009F0010E7C6F010E7D6F270E7E6F000E42
:10524E007F6FD4EC1EF00B0E0B6E260E0C6E5D0EE9
:10525E000D6E0D2EFED70C2EFCD70B2EFAD700009E
:10526E000000C9EC24F0010E5A6E030E5B6E030EA5
:10527E005C6E030E5D6E010E5E6E2CC05FF0BFECB9
:10528E0023F0800E696FFF0E6A6F00EC23F0696BDE
:10529E00FF0E6A6FFF0E6B6F6C6F6D6FF70E6E6F9A
:1052AE003BEC22F0010E0001696FFF0E6A6FFF0EDC
:1052BE006B6F6C6F6D6FF70E6E6F3BEC22F0050E21
:1052CE000001696F030E6A6F000E6B6F000E6C6F3C
:1052DE00000E6D6FF70E6E6FDAEC20F00001696B49
:1052EE00FF0E6A6F00EC23F0090E2D6E4F0E716FDC
:1052FE002F0E726F000E736F000E746F2D0E756F82
:10530E00000E766F010E776F47C078F014EC1FF029
:10531E00560E0001616F000E626F2D0E636F000E50
:10532E00646F550E656F000E666F530E676F000E3D
:10533E00686F05DC00C054F0010E5A6E6DEC25F05E
:10534E0000C03DF001C03EF044EC25F094EC24F09A
:10535E00545201E031DF3D50515C5A6E3E5052586E
:10536E005B6E38DF800E026E800E0118025C02E169
:10537E000050320806E23DC051F03EC052F0A0ECA3
:06538E0023F0C6D7FFD793
:1054C40010EE15F0170E006E010E016E740EF66EDE
:0E54D400540EF76E000EF86EC1EC24F01200BC
:105394000000007FCDCC4C7B0AD723786F120375B5
:1053A40017B75171ACC5276EBD37066B95BF5667ED
:1053B40077CC2B645F700961FFE65B5D08E53C3CDC
:0453C4006042221B06
:1053C8000000007F000020820000488500007A88E5
:1053D80000401C8C0050438F0024749280961896CD
:1053E80020BC3E99286B6E9CF90215A0EC782DC163
:0453F800CAF249E2CA
:1053FC000100000008000000400000000002000056
:10540C0000100000008000000000040000002000DC
:10541C000000000100000008000000400000000037
:10542C00010000000A00000064000000E803000016
:10543C0010270000A086010040420F0080969800C3
:08544C0000E1F50500CA9A3BDE
:105454000100000010000000000100000010000026
:105464000000010000001000000000010000001016
:02547400000036
:02547600000034
:02547800000032
:02547A00000030
:02547C0000002E
:01547E000F1E
:07547F00286E756C6C29001A
:055486005445535400E1
:10548B00303132333435363738394142434445466F
:01549B000010
:10549C00303132333435363738396162636465669E
:0154AC0000FF
:0B54AD0052652025642C25303464007B
:0B54B80054722025642C253034640061
:020000040030CA
:0D000100231F3CFFBF81FF0FC00FE00F4029
:00000001FF
